{
  "_format": "hh-sol-artifact-1",
  "contractName": "ItemListing",
  "sourceName": "contracts/ItemListing.sol",
  "abi": [
    {
      "anonymous": false,
      "inputs": [
        {
          "indexed": true,
          "internalType": "uint256",
          "name": "itemId",
          "type": "uint256"
        },
        {
          "indexed": true,
          "internalType": "address",
          "name": "seller",
          "type": "address"
        },
        {
          "indexed": false,
          "internalType": "uint256",
          "name": "price",
          "type": "uint256"
        },
        {
          "indexed": false,
          "internalType": "string",
          "name": "description",
          "type": "string"
        }
      ],
      "name": "ProductListed",
      "type": "event"
    },
    {
      "anonymous": false,
      "inputs": [
        {
          "indexed": true,
          "internalType": "uint256",
          "name": "itemId",
          "type": "uint256"
        },
        {
          "indexed": true,
          "internalType": "address",
          "name": "buyer",
          "type": "address"
        },
        {
          "indexed": false,
          "internalType": "uint256",
          "name": "price",
          "type": "uint256"
        }
      ],
      "name": "ProductSold",
      "type": "event"
    },
    {
      "inputs": [
        {
          "internalType": "uint256",
          "name": "_itemId",
          "type": "uint256"
        }
      ],
      "name": "buyProduct",
      "outputs": [],
      "stateMutability": "payable",
      "type": "function"
    },
    {
      "inputs": [
        {
          "internalType": "uint256",
          "name": "_price",
          "type": "uint256"
        },
        {
          "internalType": "string",
          "name": "_description",
          "type": "string"
        }
      ],
      "name": "listProduct",
      "outputs": [],
      "stateMutability": "nonpayable",
      "type": "function"
    },
    {
      "inputs": [],
      "name": "productCount",
      "outputs": [
        {
          "internalType": "uint256",
          "name": "",
          "type": "uint256"
        }
      ],
      "stateMutability": "view",
      "type": "function"
    },
    {
      "inputs": [
        {
          "internalType": "uint256",
          "name": "",
          "type": "uint256"
        }
      ],
      "name": "products",
      "outputs": [
        {
          "internalType": "uint256",
          "name": "itemId",
          "type": "uint256"
        },
        {
          "internalType": "address",
          "name": "seller",
          "type": "address"
        },
        {
          "internalType": "uint256",
          "name": "price",
          "type": "uint256"
        },
        {
          "internalType": "string",
          "name": "description",
          "type": "string"
        },
        {
          "internalType": "bool",
          "name": "sold",
          "type": "bool"
        }
      ],
      "stateMutability": "view",
      "type": "function"
    }
  ],
  "bytecode": "0x608060405234801561001057600080fd5b5061090c806100206000396000f3fe60806040526004361061003f5760003560e01c8063633aaf0c146100445780637acc0b20146101165780638642269e146101fe578063e0f6ef871461022c575b600080fd5b34801561005057600080fd5b506101146004803603604081101561006757600080fd5b81019080803590602001909291908035906020019064010000000081111561008e57600080fd5b8201836020820111156100a057600080fd5b803590602001918460018302840111640100000000831117156100c257600080fd5b91908080601f016020809104026020016040519081016040528093929190818152602001838380828437600081840152601f19601f820116905080830192505050505050509192919290505050610257565b005b34801561012257600080fd5b5061014f6004803603602081101561013957600080fd5b81019080803590602001909291905050506104b4565b604051808681526020018573ffffffffffffffffffffffffffffffffffffffff168152602001848152602001806020018315158152602001828103825284818151815260200191508051906020019080838360005b838110156101bf5780820151818401526020810190506101a4565b50505050905090810190601f1680156101ec5780820380516001836020036101000a031916815260200191505b50965050505050505060405180910390f35b61022a6004803603602081101561021457600080fd5b81019080803590602001909291905050506105af565b005b34801561023857600080fd5b50610241610833565b6040518082815260200191505060405180910390f35b600160008154809291906001019190505550600080600154815260200190815260200160002060040160009054906101000a900460ff1615610301576040517f08c379a00000000000000000000000000000000000000000000000000000000081526004018080602001828103825260148152602001807f50726f6475637420616c726561647920736f6c6400000000000000000000000081525060200191505060405180910390fd5b6040518060a0016040528060015481526020013373ffffffffffffffffffffffffffffffffffffffff1681526020018381526020018281526020016000151581525060008060015481526020019081526020016000206000820151816000015560208201518160010160006101000a81548173ffffffffffffffffffffffffffffffffffffffff021916908373ffffffffffffffffffffffffffffffffffffffff1602179055506040820151816002015560608201518160030190805190602001906103ce929190610839565b5060808201518160040160006101000a81548160ff0219169083151502179055509050503373ffffffffffffffffffffffffffffffffffffffff166001547f840c11cd9dbfe007b1e929f76ec774dfb2c71d30137615e3c9002e8476e9ae7c84846040518083815260200180602001828103825283818151815260200191508051906020019080838360005b8381101561047557808201518184015260208101905061045a565b50505050905090810190601f1680156104a25780820380516001836020036101000a031916815260200191505b50935050505060405180910390a35050565b60006020528060005260406000206000915090508060000154908060010160009054906101000a900473ffffffffffffffffffffffffffffffffffffffff1690806002015490806003018054600181600116156101000203166002900480601f0160208091040260200160405190810160405280929190818152602001828054600181600116156101000203166002900480156105925780601f1061056757610100808354040283529160200191610592565b820191906000526020600020905b81548152906001019060200180831161057557829003601f168201915b5050505050908060040160009054906101000a900460ff16905085565b6000811180156105c157506001548111155b610633576040517f08c379a000000000000000000000000000000000000000000000000000000000815260040180806020018281038252600f8152602001807f496e76616c6964206974656d204944000000000000000000000000000000000081525060200191505060405180910390fd5b600080600083815260200190815260200160002090508060040160009054906101000a900460ff16156106ce576040517f08c379a00000000000000000000000000000000000000000000000000000000081526004018080602001828103825260148152602001807f50726f6475637420616c726561647920736f6c6400000000000000000000000081525060200191505060405180910390fd5b8060020154341015610748576040517f08c379a00000000000000000000000000000000000000000000000000000000081526004018080602001828103825260128152602001807f496e73756666696369656e742066756e6473000000000000000000000000000081525060200191505060405180910390fd5b60008160010160009054906101000a900473ffffffffffffffffffffffffffffffffffffffff16905060008260020154905060018360040160006101000a81548160ff0219169083151502179055508173ffffffffffffffffffffffffffffffffffffffff166108fc829081150290604051600060405180830381858888f193505050501580156107dd573d6000803e3d6000fd5b503373ffffffffffffffffffffffffffffffffffffffff16847f31bb31d00bedecd9cb0a6f27507b6f5b268f069f24168aa35ae70c21c2e8d5ca836040518082815260200191505060405180910390a350505050565b60015481565b828054600181600116156101000203166002900490600052602060002090601f016020900481019282601f1061087a57805160ff19168380011785556108a8565b828001600101855582156108a8579182015b828111156108a757825182559160200191906001019061088c565b5b5090506108b591906108b9565b5090565b5b808211156108d25760008160009055506001016108ba565b509056fea264697066735822122072395a52d6553895785a49f32c044b2d178c3c7569cf1c099b9bb10989a3b3a664736f6c63430007000033",
  "linkReferences": {},
  "deployedLinkReferences": {}
}